{
  "address": "0xa6083abe845fbB8649d98B8586cBF50b7f233612",
  "abi": [
    {
      "inputs": [
        {
          "internalType": "uint256",
          "name": "_totalSupply",
          "type": "uint256"
        }
      ],
      "stateMutability": "nonpayable",
      "type": "constructor"
    },
    {
      "anonymous": false,
      "inputs": [
        {
          "indexed": true,
          "internalType": "address",
          "name": "owner",
          "type": "address"
        },
        {
          "indexed": true,
          "internalType": "address",
          "name": "spender",
          "type": "address"
        },
        {
          "indexed": false,
          "internalType": "uint256",
          "name": "value",
          "type": "uint256"
        }
      ],
      "name": "Approval",
      "type": "event"
    },
    {
      "anonymous": false,
      "inputs": [
        {
          "indexed": true,
          "internalType": "address",
          "name": "delegator",
          "type": "address"
        },
        {
          "indexed": true,
          "internalType": "address",
          "name": "fromDelegate",
          "type": "address"
        },
        {
          "indexed": true,
          "internalType": "address",
          "name": "toDelegate",
          "type": "address"
        }
      ],
      "name": "DelegateChanged",
      "type": "event"
    },
    {
      "anonymous": false,
      "inputs": [
        {
          "indexed": true,
          "internalType": "address",
          "name": "delegate",
          "type": "address"
        },
        {
          "indexed": false,
          "internalType": "uint256",
          "name": "previousBalance",
          "type": "uint256"
        },
        {
          "indexed": false,
          "internalType": "uint256",
          "name": "newBalance",
          "type": "uint256"
        }
      ],
      "name": "DelegateVotesChanged",
      "type": "event"
    },
    {
      "anonymous": false,
      "inputs": [
        {
          "indexed": true,
          "internalType": "address",
          "name": "previousOwner",
          "type": "address"
        },
        {
          "indexed": true,
          "internalType": "address",
          "name": "newOwner",
          "type": "address"
        }
      ],
      "name": "OwnershipTransferred",
      "type": "event"
    },
    {
      "anonymous": false,
      "inputs": [
        {
          "indexed": false,
          "internalType": "uint256",
          "name": "id",
          "type": "uint256"
        }
      ],
      "name": "Snapshot",
      "type": "event"
    },
    {
      "anonymous": false,
      "inputs": [
        {
          "indexed": true,
          "internalType": "address",
          "name": "from",
          "type": "address"
        },
        {
          "indexed": true,
          "internalType": "address",
          "name": "to",
          "type": "address"
        },
        {
          "indexed": false,
          "internalType": "uint256",
          "name": "value",
          "type": "uint256"
        }
      ],
      "name": "Transfer",
      "type": "event"
    },
    {
      "inputs": [],
      "name": "DOMAIN_SEPARATOR",
      "outputs": [
        {
          "internalType": "bytes32",
          "name": "",
          "type": "bytes32"
        }
      ],
      "stateMutability": "view",
      "type": "function"
    },
    {
      "inputs": [
        {
          "internalType": "address",
          "name": "owner",
          "type": "address"
        },
        {
          "internalType": "address",
          "name": "spender",
          "type": "address"
        }
      ],
      "name": "allowance",
      "outputs": [
        {
          "internalType": "uint256",
          "name": "",
          "type": "uint256"
        }
      ],
      "stateMutability": "view",
      "type": "function"
    },
    {
      "inputs": [
        {
          "internalType": "address",
          "name": "spender",
          "type": "address"
        },
        {
          "internalType": "uint256",
          "name": "amount",
          "type": "uint256"
        }
      ],
      "name": "approve",
      "outputs": [
        {
          "internalType": "bool",
          "name": "",
          "type": "bool"
        }
      ],
      "stateMutability": "nonpayable",
      "type": "function"
    },
    {
      "inputs": [
        {
          "internalType": "address",
          "name": "account",
          "type": "address"
        }
      ],
      "name": "balanceOf",
      "outputs": [
        {
          "internalType": "uint256",
          "name": "",
          "type": "uint256"
        }
      ],
      "stateMutability": "view",
      "type": "function"
    },
    {
      "inputs": [
        {
          "internalType": "address",
          "name": "account",
          "type": "address"
        },
        {
          "internalType": "uint256",
          "name": "snapshotId",
          "type": "uint256"
        }
      ],
      "name": "balanceOfAt",
      "outputs": [
        {
          "internalType": "uint256",
          "name": "",
          "type": "uint256"
        }
      ],
      "stateMutability": "view",
      "type": "function"
    },
    {
      "inputs": [
        {
          "internalType": "uint256",
          "name": "amount",
          "type": "uint256"
        }
      ],
      "name": "burn",
      "outputs": [],
      "stateMutability": "nonpayable",
      "type": "function"
    },
    {
      "inputs": [
        {
          "internalType": "address",
          "name": "account",
          "type": "address"
        },
        {
          "internalType": "uint256",
          "name": "amount",
          "type": "uint256"
        }
      ],
      "name": "burnFrom",
      "outputs": [],
      "stateMutability": "nonpayable",
      "type": "function"
    },
    {
      "inputs": [],
      "name": "cap",
      "outputs": [
        {
          "internalType": "uint256",
          "name": "",
          "type": "uint256"
        }
      ],
      "stateMutability": "view",
      "type": "function"
    },
    {
      "inputs": [
        {
          "internalType": "address",
          "name": "account",
          "type": "address"
        },
        {
          "internalType": "uint32",
          "name": "pos",
          "type": "uint32"
        }
      ],
      "name": "checkpoints",
      "outputs": [
        {
          "components": [
            {
              "internalType": "uint32",
              "name": "fromBlock",
              "type": "uint32"
            },
            {
              "internalType": "uint224",
              "name": "votes",
              "type": "uint224"
            }
          ],
          "internalType": "struct ERC20Votes.Checkpoint",
          "name": "",
          "type": "tuple"
        }
      ],
      "stateMutability": "view",
      "type": "function"
    },
    {
      "inputs": [],
      "name": "decimals",
      "outputs": [
        {
          "internalType": "uint8",
          "name": "",
          "type": "uint8"
        }
      ],
      "stateMutability": "view",
      "type": "function"
    },
    {
      "inputs": [
        {
          "internalType": "address",
          "name": "spender",
          "type": "address"
        },
        {
          "internalType": "uint256",
          "name": "subtractedValue",
          "type": "uint256"
        }
      ],
      "name": "decreaseAllowance",
      "outputs": [
        {
          "internalType": "bool",
          "name": "",
          "type": "bool"
        }
      ],
      "stateMutability": "nonpayable",
      "type": "function"
    },
    {
      "inputs": [
        {
          "internalType": "address",
          "name": "delegatee",
          "type": "address"
        }
      ],
      "name": "delegate",
      "outputs": [],
      "stateMutability": "nonpayable",
      "type": "function"
    },
    {
      "inputs": [
        {
          "internalType": "address",
          "name": "delegatee",
          "type": "address"
        },
        {
          "internalType": "uint256",
          "name": "nonce",
          "type": "uint256"
        },
        {
          "internalType": "uint256",
          "name": "expiry",
          "type": "uint256"
        },
        {
          "internalType": "uint8",
          "name": "v",
          "type": "uint8"
        },
        {
          "internalType": "bytes32",
          "name": "r",
          "type": "bytes32"
        },
        {
          "internalType": "bytes32",
          "name": "s",
          "type": "bytes32"
        }
      ],
      "name": "delegateBySig",
      "outputs": [],
      "stateMutability": "nonpayable",
      "type": "function"
    },
    {
      "inputs": [
        {
          "internalType": "address",
          "name": "account",
          "type": "address"
        }
      ],
      "name": "delegates",
      "outputs": [
        {
          "internalType": "address",
          "name": "",
          "type": "address"
        }
      ],
      "stateMutability": "view",
      "type": "function"
    },
    {
      "inputs": [],
      "name": "getChainId",
      "outputs": [
        {
          "internalType": "uint256",
          "name": "",
          "type": "uint256"
        }
      ],
      "stateMutability": "view",
      "type": "function"
    },
    {
      "inputs": [
        {
          "internalType": "uint256",
          "name": "blockNumber",
          "type": "uint256"
        }
      ],
      "name": "getPastTotalSupply",
      "outputs": [
        {
          "internalType": "uint256",
          "name": "",
          "type": "uint256"
        }
      ],
      "stateMutability": "view",
      "type": "function"
    },
    {
      "inputs": [
        {
          "internalType": "address",
          "name": "account",
          "type": "address"
        },
        {
          "internalType": "uint256",
          "name": "blockNumber",
          "type": "uint256"
        }
      ],
      "name": "getPastVotes",
      "outputs": [
        {
          "internalType": "uint256",
          "name": "",
          "type": "uint256"
        }
      ],
      "stateMutability": "view",
      "type": "function"
    },
    {
      "inputs": [
        {
          "internalType": "address",
          "name": "account",
          "type": "address"
        }
      ],
      "name": "getVotes",
      "outputs": [
        {
          "internalType": "uint256",
          "name": "",
          "type": "uint256"
        }
      ],
      "stateMutability": "view",
      "type": "function"
    },
    {
      "inputs": [
        {
          "internalType": "address",
          "name": "spender",
          "type": "address"
        },
        {
          "internalType": "uint256",
          "name": "addedValue",
          "type": "uint256"
        }
      ],
      "name": "increaseAllowance",
      "outputs": [
        {
          "internalType": "bool",
          "name": "",
          "type": "bool"
        }
      ],
      "stateMutability": "nonpayable",
      "type": "function"
    },
    {
      "inputs": [
        {
          "internalType": "address",
          "name": "to",
          "type": "address"
        },
        {
          "internalType": "uint256",
          "name": "amount",
          "type": "uint256"
        }
      ],
      "name": "mint",
      "outputs": [],
      "stateMutability": "nonpayable",
      "type": "function"
    },
    {
      "inputs": [],
      "name": "name",
      "outputs": [
        {
          "internalType": "string",
          "name": "",
          "type": "string"
        }
      ],
      "stateMutability": "view",
      "type": "function"
    },
    {
      "inputs": [
        {
          "internalType": "address",
          "name": "owner",
          "type": "address"
        }
      ],
      "name": "nonces",
      "outputs": [
        {
          "internalType": "uint256",
          "name": "",
          "type": "uint256"
        }
      ],
      "stateMutability": "view",
      "type": "function"
    },
    {
      "inputs": [
        {
          "internalType": "address",
          "name": "account",
          "type": "address"
        }
      ],
      "name": "numCheckpoints",
      "outputs": [
        {
          "internalType": "uint32",
          "name": "",
          "type": "uint32"
        }
      ],
      "stateMutability": "view",
      "type": "function"
    },
    {
      "inputs": [],
      "name": "owner",
      "outputs": [
        {
          "internalType": "address",
          "name": "",
          "type": "address"
        }
      ],
      "stateMutability": "view",
      "type": "function"
    },
    {
      "inputs": [
        {
          "internalType": "address",
          "name": "owner",
          "type": "address"
        },
        {
          "internalType": "address",
          "name": "spender",
          "type": "address"
        },
        {
          "internalType": "uint256",
          "name": "value",
          "type": "uint256"
        },
        {
          "internalType": "uint256",
          "name": "deadline",
          "type": "uint256"
        },
        {
          "internalType": "uint8",
          "name": "v",
          "type": "uint8"
        },
        {
          "internalType": "bytes32",
          "name": "r",
          "type": "bytes32"
        },
        {
          "internalType": "bytes32",
          "name": "s",
          "type": "bytes32"
        }
      ],
      "name": "permit",
      "outputs": [],
      "stateMutability": "nonpayable",
      "type": "function"
    },
    {
      "inputs": [],
      "name": "renounceOwnership",
      "outputs": [],
      "stateMutability": "nonpayable",
      "type": "function"
    },
    {
      "inputs": [],
      "name": "snapshot",
      "outputs": [],
      "stateMutability": "nonpayable",
      "type": "function"
    },
    {
      "inputs": [],
      "name": "symbol",
      "outputs": [
        {
          "internalType": "string",
          "name": "",
          "type": "string"
        }
      ],
      "stateMutability": "view",
      "type": "function"
    },
    {
      "inputs": [],
      "name": "totalSupply",
      "outputs": [
        {
          "internalType": "uint256",
          "name": "",
          "type": "uint256"
        }
      ],
      "stateMutability": "view",
      "type": "function"
    },
    {
      "inputs": [
        {
          "internalType": "uint256",
          "name": "snapshotId",
          "type": "uint256"
        }
      ],
      "name": "totalSupplyAt",
      "outputs": [
        {
          "internalType": "uint256",
          "name": "",
          "type": "uint256"
        }
      ],
      "stateMutability": "view",
      "type": "function"
    },
    {
      "inputs": [
        {
          "internalType": "address",
          "name": "recipient",
          "type": "address"
        },
        {
          "internalType": "uint256",
          "name": "amount",
          "type": "uint256"
        }
      ],
      "name": "transfer",
      "outputs": [
        {
          "internalType": "bool",
          "name": "",
          "type": "bool"
        }
      ],
      "stateMutability": "nonpayable",
      "type": "function"
    },
    {
      "inputs": [
        {
          "internalType": "address",
          "name": "sender",
          "type": "address"
        },
        {
          "internalType": "address",
          "name": "recipient",
          "type": "address"
        },
        {
          "internalType": "uint256",
          "name": "amount",
          "type": "uint256"
        }
      ],
      "name": "transferFrom",
      "outputs": [
        {
          "internalType": "bool",
          "name": "",
          "type": "bool"
        }
      ],
      "stateMutability": "nonpayable",
      "type": "function"
    },
    {
      "inputs": [
        {
          "internalType": "address",
          "name": "newOwner",
          "type": "address"
        }
      ],
      "name": "transferOwnership",
      "outputs": [],
      "stateMutability": "nonpayable",
      "type": "function"
    }
  ],
  "transactionHash": "0xb34c15abc31105b93ee2d3ee97d9ad0ef7ee63aecc3443224b3eff0ca3bf80c4",
  "args": [
    "750000000000000000000000000"
  ],
  "solcInputHash": "b9c6905d33da9c68511f75e353700583",
  "bytecode": "0x6101806040527f6e71edae12b1b97f4d1f60370fef10105fa2faae0126114a169c64845d6126c9610160523480156200003757600080fd5b5060405162002ddf38038062002ddf8339810160408190526200005a91620002e9565b604051806040016040528060068152602001652830bcb1b2b960d11b81525080604051806040016040528060018152602001603160f81b81525083604051806040016040528060068152602001652830bcb1b2b960d11b815250604051806040016040528060038152602001622821a960e91b8152508160039080519060200190620000e892919062000243565b508051620000fe90600490602084019062000243565b505050600081116200012d5760405162461bcd60e51b815260040162000124906200032e565b60405180910390fd5b608052620001446200013e620001b1565b620001b5565b81516020808401919091208251918301919091206101008290526101208190524660c0527f8b73c3c69bb8fe3d512ecc4cf759cc79239f7b179b0ffacaa9a75d522b39400f6200019681848462000207565b60a0523060601b60e0526101405250620003a2945050505050565b3390565b600980546001600160a01b038381166001600160a01b0319831681179093556040519116919082907f8be0079c531659141344cd1fd0a4f28419497f9722a3daafe3b4186f6b6457e090600090a35050565b600083838346306040516020016200022495949392919062000302565b6040516020818303038152906040528051906020012090509392505050565b828054620002519062000365565b90600052602060002090601f016020900481019282620002755760008555620002c0565b82601f106200029057805160ff1916838001178555620002c0565b82800160010185558215620002c0579182015b82811115620002c0578251825591602001919060010190620002a3565b50620002ce929150620002d2565b5090565b5b80821115620002ce5760008155600101620002d3565b600060208284031215620002fb578081fd5b5051919050565b9485526020850193909352604084019190915260608301526001600160a01b0316608082015260a00190565b60208082526015908201527f45524332304361707065643a2063617020697320300000000000000000000000604082015260600190565b6002810460018216806200037a57607f821691505b602082108114156200039c57634e487b7160e01b600052602260045260246000fd5b50919050565b60805160a05160c05160e05160601c610100516101205161014051610160516129d46200040b6000396000610b4201526000610f8b01526000610fcd01526000610fac01526000610f0e01526000610f3801526000610f62015260006105d601526129d46000f3fe608060405234801561001057600080fd5b506004361061020b5760003560e01c806370a082311161012a578063981b24d0116100bd578063c3cda5201161008c578063dd62ed3e11610071578063dd62ed3e14610435578063f1127ed814610448578063f2fde38b146104685761020b565b8063c3cda5201461040f578063d505accf146104225761020b565b8063981b24d0146103c35780639ab24eb0146103d6578063a457c2d7146103e9578063a9059cbb146103fc5761020b565b80638da5cb5b116100f95780638da5cb5b146103985780638e539e8c146103a057806395d89b41146103b35780639711715a146103bb5761020b565b806370a0823114610357578063715018a61461036a57806379cc6790146103725780637ecebe00146103855761020b565b806339509351116101a25780634ee2cd7e116101715780634ee2cd7e146102f1578063587cde1e146103045780635c19a95c146103245780636fcfff45146103375761020b565b806339509351146102a35780633a46b1a8146102b657806340c10f19146102c957806342966c68146102de5761020b565b8063313ce567116101de578063313ce567146102765780633408e4701461028b578063355274ea146102935780633644e5151461029b5761020b565b806306fdde0314610210578063095ea7b31461022e57806318160ddd1461024e57806323b872dd14610263575b600080fd5b61021861047b565b60405161022591906120d0565b60405180910390f35b61024161023c366004611f15565b61050e565b604051610225919061201a565b61025661052c565b6040516102259190612025565b610241610271366004611e71565b610532565b61027e6105cb565b60405161022591906128f6565b6102566105d0565b6102566105d4565b6102566105f8565b6102416102b1366004611f15565b610607565b6102566102c4366004611f15565b61065b565b6102dc6102d7366004611f15565b6106a5565b005b6102dc6102ec366004611fd3565b6106f2565b6102566102ff366004611f15565b610706565b610317610312366004611e25565b61074f565b6040516102259190612006565b6102dc610332366004611e25565b610770565b61034a610345366004611e25565b610781565b60405161022591906128e5565b610256610365366004611e25565b6107a3565b6102dc6107be565b6102dc610380366004611f15565b610809565b610256610393366004611e25565b61085c565b61031761087d565b6102566103ae366004611fd3565b61088c565b6102186108b8565b6102dc6108c7565b6102566103d1366004611fd3565b61090e565b6102566103e4366004611e25565b61093e565b6102416103f7366004611f15565b6109d3565b61024161040a366004611f15565b610a4c565b6102dc61041d366004611f3e565b610a60565b6102dc610430366004611eac565b610b1e565b610256610443366004611e3f565b610c00565b61045b610456366004611f95565b610c2b565b60405161022591906128b1565b6102dc610476366004611e25565b610cb1565b60606003805461048a90612953565b80601f01602080910402602001604051908101604052809291908181526020018280546104b690612953565b80156105035780601f106104d857610100808354040283529160200191610503565b820191906000526020600020905b8154815290600101906020018083116104e657829003601f168201915b505050505090505b90565b600061052261051b610d1f565b8484610d23565b5060015b92915050565b60025490565b600061053f848484610dd7565b6001600160a01b038416600090815260016020526040812081610560610d1f565b6001600160a01b03166001600160a01b03168152602001908152602001600020549050828110156105ac5760405162461bcd60e51b81526004016105a3906124e0565b60405180910390fd5b6105c0856105b8610d1f565b858403610d23565b506001949350505050565b601290565b4690565b7f000000000000000000000000000000000000000000000000000000000000000090565b6000610602610f01565b905090565b6000610522610614610d1f565b848460016000610622610d1f565b6001600160a01b03908116825260208083019390935260409182016000908120918b16815292529020546106569190612904565b610d23565b600043821061067c5760405162461bcd60e51b81526004016105a3906121d4565b6001600160a01b0383166000908152600c6020526040902061069e9083610ff8565b9392505050565b6106ad610d1f565b6001600160a01b03166106be61087d565b6001600160a01b0316146106e45760405162461bcd60e51b81526004016105a39061259a565b6106ee82826110d1565b5050565b6107036106fd610d1f565b826110db565b50565b6001600160a01b03821660009081526005602052604081208190819061072d9085906110e5565b91509150816107445761073f856107a3565b610746565b805b95945050505050565b6001600160a01b038082166000908152600b6020526040902054165b919050565b61070361077b610d1f565b82611191565b6001600160a01b0381166000908152600c60205260408120546105269061121e565b6001600160a01b031660009081526020819052604090205490565b6107c6610d1f565b6001600160a01b03166107d761087d565b6001600160a01b0316146107fd5760405162461bcd60e51b81526004016105a39061259a565b6108076000611248565b565b600061081783610443610d1f565b9050818110156108395760405162461bcd60e51b81526004016105a39061262c565b61084d83610845610d1f565b848403610d23565b61085783836110db565b505050565b6001600160a01b0381166000908152600a60205260408120610526906112a7565b6009546001600160a01b031690565b60004382106108ad5760405162461bcd60e51b81526004016105a3906121d4565b610526600d83610ff8565b60606004805461048a90612953565b6108cf610d1f565b6001600160a01b03166108e061087d565b6001600160a01b0316146109065760405162461bcd60e51b81526004016105a39061259a565b6107036112ab565b600080600061091e8460066110e5565b91509150816109345761092f61052c565b610936565b805b949350505050565b6001600160a01b0381166000908152600c602052604081205480156109c0576001600160a01b0383166000908152600c6020526040902061098060018361293c565b8154811061099e57634e487b7160e01b600052603260045260246000fd5b60009182526020909120015464010000000090046001600160e01b03166109c3565b60005b6001600160e01b03169392505050565b600080600160006109e2610d1f565b6001600160a01b0390811682526020808301939093526040918201600090812091881681529252902054905082811015610a2e5760405162461bcd60e51b81526004016105a39061281d565b610a42610a39610d1f565b85858403610d23565b5060019392505050565b6000610522610a59610d1f565b8484610dd7565b83421115610a805760405162461bcd60e51b81526004016105a39061220b565b6000610ae2610ada7fe48329057bfd03d55e49b547132e39cffd9c1820ad7b9d4c5307691425d15adf898989604051602001610abf9493929190612062565b604051602081830303815290604052805190602001206112ff565b858585611312565b9050610aed8161133a565b8614610b0b5760405162461bcd60e51b81526004016105a3906122bb565b610b158188611191565b50505050505050565b83421115610b3e5760405162461bcd60e51b81526004016105a390612391565b60007f0000000000000000000000000000000000000000000000000000000000000000888888610b6d8c61133a565b89604051602001610b839695949392919061202e565b6040516020818303038152906040528051906020012090506000610ba6826112ff565b90506000610bb682878787611312565b9050896001600160a01b0316816001600160a01b031614610be95760405162461bcd60e51b81526004016105a3906124a9565b610bf48a8a8a610d23565b50505050505050505050565b6001600160a01b03918216600090815260016020908152604080832093909416825291909152205490565b610c33611de6565b6001600160a01b0383166000908152600c60205260409020805463ffffffff8416908110610c7157634e487b7160e01b600052603260045260246000fd5b60009182526020918290206040805180820190915291015463ffffffff8116825264010000000090046001600160e01b0316918101919091529392505050565b610cb9610d1f565b6001600160a01b0316610cca61087d565b6001600160a01b031614610cf05760405162461bcd60e51b81526004016105a39061259a565b6001600160a01b038116610d165760405162461bcd60e51b81526004016105a3906122f2565b61070381611248565b3390565b6001600160a01b038316610d495760405162461bcd60e51b81526004016105a3906127a2565b6001600160a01b038216610d6f5760405162461bcd60e51b81526004016105a39061234f565b6001600160a01b0380841660008181526001602090815260408083209487168084529490915290819020849055517f8c5be1e5ebec7d5bd14f71427d1e84f3dd0314c0f7b2291e5b200ac8c7c3b92590610dca908590612025565b60405180910390a3505050565b6001600160a01b038316610dfd5760405162461bcd60e51b81526004016105a3906126b1565b6001600160a01b038216610e235760405162461bcd60e51b81526004016105a390612191565b610e2e83838361136c565b6001600160a01b03831660009081526020819052604090205481811015610e675760405162461bcd60e51b81526004016105a3906123c8565b6001600160a01b03808516600090815260208190526040808220858503905591851681529081208054849290610e9e908490612904565b92505081905550826001600160a01b0316846001600160a01b03167fddf252ad1be2c89b69c2b068fc378daa952ba7f163c4a11628f55a4df523b3ef84604051610ee89190612025565b60405180910390a3610efb848484611377565b50505050565b6000306001600160a01b037f000000000000000000000000000000000000000000000000000000000000000016148015610f5a57507f000000000000000000000000000000000000000000000000000000000000000046145b15610f8657507f000000000000000000000000000000000000000000000000000000000000000061050b565b610ff17f00000000000000000000000000000000000000000000000000000000000000007f00000000000000000000000000000000000000000000000000000000000000007f0000000000000000000000000000000000000000000000000000000000000000611382565b905061050b565b8154600090815b8181101561106a57600061101382846113bc565b90508486828154811061103657634e487b7160e01b600052603260045260246000fd5b60009182526020909120015463ffffffff16111561105657809250611064565b611061816001612904565b91505b50610fff565b81156110bc578461107c60018461293c565b8154811061109a57634e487b7160e01b600052603260045260246000fd5b60009182526020909120015464010000000090046001600160e01b03166110bf565b60005b6001600160e01b031695945050505050565b6106ee82826113d7565b6106ee8282611426565b600080600084116111085760405162461bcd60e51b81526004016105a3906127e6565b61111061143e565b84111561112f5760405162461bcd60e51b81526004016105a39061215a565b600061113b848661144a565b845490915081141561115457600080925092505061118a565b600184600101828154811061117957634e487b7160e01b600052603260045260246000fd5b906000526020600020015492509250505b9250929050565b600061119c8361074f565b905060006111a9846107a3565b6001600160a01b038581166000818152600b6020526040808220805473ffffffffffffffffffffffffffffffffffffffff1916898616908117909155905194955093928616927f3134e8a2e6d97e929a7e54011ea5485d7d196dd5f0ba4d4ef95803e8e3fc257f9190a4610efb828483611529565b600063ffffffff8211156112445760405162461bcd60e51b81526004016105a390612745565b5090565b600980546001600160a01b0383811673ffffffffffffffffffffffffffffffffffffffff19831681179093556040519116919082907f8be0079c531659141344cd1fd0a4f28419497f9722a3daafe3b4186f6b6457e090600090a35050565b5490565b60006112b76008611654565b60006112c161143e565b90507f8030e83b04d87bef53480e26263266d6ca66863aa8506aca6f2559d18aa1cb67816040516112f29190612025565b60405180910390a1905090565b600061052661130c610f01565b8361165d565b600080600061132387878787611690565b9150915061133081611770565b5095945050505050565b6001600160a01b0381166000908152600a6020526040812061135b816112a7565b915061136681611654565b50919050565b61085783838361189d565b6108578383836118f5565b6000838383463060405160200161139d959493929190612086565b6040516020818303038152906040528051906020012090509392505050565b60006113cb600284841861291c565b61069e90848416612904565b6113e1828261191b565b6113e961195e565b6001600160e01b03166113fa61052c565b11156114185760405162461bcd60e51b81526004016105a39061253d565b610efb600d61196983611975565b6114308282611b26565b610efb600d611c1783611975565b600061060260086112a7565b815460009061145b57506000610526565b82546000905b808210156114c557600061147583836113bc565b90508486828154811061149857634e487b7160e01b600052603260045260246000fd5b906000526020600020015411156114b1578091506114bf565b6114bc816001612904565b92505b50611461565b600082118015611508575083856114dd60018561293c565b815481106114fb57634e487b7160e01b600052603260045260246000fd5b9060005260206000200154145b156115215761151860018361293c565b92505050610526565b509050610526565b816001600160a01b0316836001600160a01b03161415801561154b5750600081115b15610857576001600160a01b038316156115d0576001600160a01b0383166000908152600c60205260408120819061158690611c1785611975565b91509150846001600160a01b03167fdec2bacdd2f05b59de34da9b523dff8be42e5e38e818c82fdb0bae774387a72483836040516115c59291906128d7565b60405180910390a250505b6001600160a01b03821615610857576001600160a01b0382166000908152600c6020526040812081906116069061196985611975565b91509150836001600160a01b03167fdec2bacdd2f05b59de34da9b523dff8be42e5e38e818c82fdb0bae774387a72483836040516116459291906128d7565b60405180910390a25050505050565b80546001019055565b60008282604051602001611672929190611feb565b60405160208183030381529060405280519060200120905092915050565b6000807f7fffffffffffffffffffffffffffffff5d576e7357a4501ddfe92f46681b20a08311156116c75750600090506003611767565b8460ff16601b141580156116df57508460ff16601c14155b156116f05750600090506004611767565b60006001878787876040516000815260200160405260405161171594939291906120b2565b6020604051602081039080840390855afa158015611737573d6000803e3d6000fd5b5050604051601f1901519150506001600160a01b03811661176057600060019250925050611767565b9150600090505b94509492505050565b600081600481111561179257634e487b7160e01b600052602160045260246000fd5b141561179d57610703565b60018160048111156117bf57634e487b7160e01b600052602160045260246000fd5b14156117dd5760405162461bcd60e51b81526004016105a390612123565b60028160048111156117ff57634e487b7160e01b600052602160045260246000fd5b141561181d5760405162461bcd60e51b81526004016105a390612284565b600381600481111561183f57634e487b7160e01b600052602160045260246000fd5b141561185d5760405162461bcd60e51b81526004016105a390612425565b600481600481111561187f57634e487b7160e01b600052602160045260246000fd5b14156107035760405162461bcd60e51b81526004016105a390612467565b6118a8838383610857565b6001600160a01b0383166118cc576118bf82611c23565b6118c7611c4d565b610857565b6001600160a01b0382166118e3576118bf83611c23565b6118ec83611c23565b61085782611c23565b611900838383610857565b61085761190c8461074f565b6119158461074f565b83611529565b6119236105d4565b8161192c61052c565b6119369190612904565b11156119545760405162461bcd60e51b81526004016105a39061270e565b6106ee8282611c5a565b6001600160e01b0390565b600061069e8284612904565b8254600090819080156119ce578561198e60018361293c565b815481106119ac57634e487b7160e01b600052603260045260246000fd5b60009182526020909120015464010000000090046001600160e01b03166119d1565b60005b6001600160e01b031692506119ea83858763ffffffff16565b9150600081118015611a3657504386611a0460018461293c565b81548110611a2257634e487b7160e01b600052603260045260246000fd5b60009182526020909120015463ffffffff16145b15611aa457611a4482611d22565b86611a5060018461293c565b81548110611a6e57634e487b7160e01b600052603260045260246000fd5b9060005260206000200160000160046101000a8154816001600160e01b0302191690836001600160e01b03160217905550611b1d565b856040518060400160405280611ab94361121e565b63ffffffff168152602001611acd85611d22565b6001600160e01b039081169091528254600181018455600093845260209384902083519101805493909401519091166401000000000263ffffffff91821663ffffffff1990931692909217161790555b50935093915050565b6001600160a01b038216611b4c5760405162461bcd60e51b81526004016105a390612670565b611b588260008361136c565b6001600160a01b03821660009081526020819052604090205481811015611b915760405162461bcd60e51b81526004016105a390612242565b6001600160a01b0383166000908152602081905260408120838303905560028054849290611bc090849061293c565b90915550506040516000906001600160a01b038516907fddf252ad1be2c89b69c2b068fc378daa952ba7f163c4a11628f55a4df523b3ef90611c03908690612025565b60405180910390a361085783600084611377565b600061069e828461293c565b6001600160a01b038116600090815260056020526040902061070390611c48836107a3565b611d4b565b6108076006611c4861052c565b6001600160a01b038216611c805760405162461bcd60e51b81526004016105a39061287a565b611c8c6000838361136c565b8060026000828254611c9e9190612904565b90915550506001600160a01b03821660009081526020819052604081208054839290611ccb908490612904565b90915550506040516001600160a01b038316906000907fddf252ad1be2c89b69c2b068fc378daa952ba7f163c4a11628f55a4df523b3ef90611d0e908590612025565b60405180910390a36106ee60008383611377565b60006001600160e01b038211156112445760405162461bcd60e51b81526004016105a3906125cf565b6000611d5561143e565b905080611d6184611d95565b1015610857578254600180820185556000858152602080822090930193909355938401805494850181558252902090910155565b8054600090611da65750600061076b565b81548290611db69060019061293c565b81548110611dd457634e487b7160e01b600052603260045260246000fd5b9060005260206000200154905061076b565b604080518082019091526000808252602082015290565b80356001600160a01b038116811461076b57600080fd5b803560ff8116811461076b57600080fd5b600060208284031215611e36578081fd5b61069e82611dfd565b60008060408385031215611e51578081fd5b611e5a83611dfd565b9150611e6860208401611dfd565b90509250929050565b600080600060608486031215611e85578081fd5b611e8e84611dfd565b9250611e9c60208501611dfd565b9150604084013590509250925092565b600080600080600080600060e0888a031215611ec6578283fd5b611ecf88611dfd565b9650611edd60208901611dfd565b95506040880135945060608801359350611ef960808901611e14565b925060a0880135915060c0880135905092959891949750929550565b60008060408385031215611f27578182fd5b611f3083611dfd565b946020939093013593505050565b60008060008060008060c08789031215611f56578182fd5b611f5f87611dfd565b95506020870135945060408701359350611f7b60608801611e14565b92506080870135915060a087013590509295509295509295565b60008060408385031215611fa7578182fd5b611fb083611dfd565b9150602083013563ffffffff81168114611fc8578182fd5b809150509250929050565b600060208284031215611fe4578081fd5b5035919050565b61190160f01b81526002810192909252602282015260420190565b6001600160a01b0391909116815260200190565b901515815260200190565b90815260200190565b9586526001600160a01b0394851660208701529290931660408501526060840152608083019190915260a082015260c00190565b9384526001600160a01b039290921660208401526040830152606082015260800190565b9485526020850193909352604084019190915260608301526001600160a01b0316608082015260a00190565b93845260ff9290921660208401526040830152606082015260800190565b6000602080835283518082850152825b818110156120fc578581018301518582016040015282016120e0565b8181111561210d5783604083870101525b50601f01601f1916929092016040019392505050565b60208082526018908201527f45434453413a20696e76616c6964207369676e61747572650000000000000000604082015260600190565b6020808252601d908201527f4552433230536e617073686f743a206e6f6e6578697374656e74206964000000604082015260600190565b60208082526023908201527f45524332303a207472616e7366657220746f20746865207a65726f206164647260408201526265737360e81b606082015260800190565b6020808252601f908201527f4552433230566f7465733a20626c6f636b206e6f7420796574206d696e656400604082015260600190565b6020808252601d908201527f4552433230566f7465733a207369676e61747572652065787069726564000000604082015260600190565b60208082526022908201527f45524332303a206275726e20616d6f756e7420657863656564732062616c616e604082015261636560f01b606082015260800190565b6020808252601f908201527f45434453413a20696e76616c6964207369676e6174757265206c656e67746800604082015260600190565b60208082526019908201527f4552433230566f7465733a20696e76616c6964206e6f6e636500000000000000604082015260600190565b60208082526026908201527f4f776e61626c653a206e6577206f776e657220697320746865207a65726f206160408201527f6464726573730000000000000000000000000000000000000000000000000000606082015260800190565b60208082526022908201527f45524332303a20617070726f766520746f20746865207a65726f206164647265604082015261737360f01b606082015260800190565b6020808252601d908201527f45524332305065726d69743a206578706972656420646561646c696e65000000604082015260600190565b60208082526026908201527f45524332303a207472616e7366657220616d6f756e742065786365656473206260408201527f616c616e63650000000000000000000000000000000000000000000000000000606082015260800190565b60208082526022908201527f45434453413a20696e76616c6964207369676e6174757265202773272076616c604082015261756560f01b606082015260800190565b60208082526022908201527f45434453413a20696e76616c6964207369676e6174757265202776272076616c604082015261756560f01b606082015260800190565b6020808252601e908201527f45524332305065726d69743a20696e76616c6964207369676e61747572650000604082015260600190565b60208082526028908201527f45524332303a207472616e7366657220616d6f756e742065786365656473206160408201527f6c6c6f77616e6365000000000000000000000000000000000000000000000000606082015260800190565b60208082526030908201527f4552433230566f7465733a20746f74616c20737570706c79207269736b73206f60408201527f766572666c6f77696e6720766f74657300000000000000000000000000000000606082015260800190565b6020808252818101527f4f776e61626c653a2063616c6c6572206973206e6f7420746865206f776e6572604082015260600190565b60208082526027908201527f53616665436173743a2076616c756520646f65736e27742066697420696e203260408201527f3234206269747300000000000000000000000000000000000000000000000000606082015260800190565b60208082526024908201527f45524332303a206275726e20616d6f756e74206578636565647320616c6c6f77604082015263616e636560e01b606082015260800190565b60208082526021908201527f45524332303a206275726e2066726f6d20746865207a65726f206164647265736040820152607360f81b606082015260800190565b60208082526025908201527f45524332303a207472616e736665722066726f6d20746865207a65726f20616460408201527f6472657373000000000000000000000000000000000000000000000000000000606082015260800190565b60208082526019908201527f45524332304361707065643a2063617020657863656564656400000000000000604082015260600190565b60208082526026908201527f53616665436173743a2076616c756520646f65736e27742066697420696e203360408201527f3220626974730000000000000000000000000000000000000000000000000000606082015260800190565b60208082526024908201527f45524332303a20617070726f76652066726f6d20746865207a65726f206164646040820152637265737360e01b606082015260800190565b60208082526016908201527f4552433230536e617073686f743a206964206973203000000000000000000000604082015260600190565b60208082526025908201527f45524332303a2064656372656173656420616c6c6f77616e63652062656c6f7760408201527f207a65726f000000000000000000000000000000000000000000000000000000606082015260800190565b6020808252601f908201527f45524332303a206d696e7420746f20746865207a65726f206164647265737300604082015260600190565b815163ffffffff1681526020918201516001600160e01b03169181019190915260400190565b918252602082015260400190565b63ffffffff91909116815260200190565b60ff91909116815260200190565b6000821982111561291757612917612988565b500190565b60008261293757634e487b7160e01b81526012600452602481fd5b500490565b60008282101561294e5761294e612988565b500390565b60028104600182168061296757607f821691505b6020821081141561136657634e487b7160e01b600052602260045260246000fd5b634e487b7160e01b600052601160045260246000fdfea264697066735822122063a275091de57ee4b4aba4115557d0fbb48f824fe70da115e40928db3e5561a264736f6c63430008000033",
  "devdoc": {
    "kind": "dev",
    "methods": {
      "DOMAIN_SEPARATOR()": {
        "details": "See {IERC20Permit-DOMAIN_SEPARATOR}."
      },
      "allowance(address,address)": {
        "details": "See {IERC20-allowance}."
      },
      "approve(address,uint256)": {
        "details": "See {IERC20-approve}. Requirements: - `spender` cannot be the zero address."
      },
      "balanceOf(address)": {
        "details": "See {IERC20-balanceOf}."
      },
      "balanceOfAt(address,uint256)": {
        "details": "Retrieves the balance of `account` at the time `snapshotId` was created."
      },
      "burn(uint256)": {
        "details": "Destroys `amount` tokens from the caller. See {ERC20-_burn}."
      },
      "burnFrom(address,uint256)": {
        "details": "Destroys `amount` tokens from `account`, deducting from the caller's allowance. See {ERC20-_burn} and {ERC20-allowance}. Requirements: - the caller must have allowance for ``accounts``'s tokens of at least `amount`."
      },
      "cap()": {
        "details": "Returns the cap on the token's total supply."
      },
      "checkpoints(address,uint32)": {
        "details": "Get the `pos`-th checkpoint for `account`."
      },
      "decimals()": {
        "details": "Returns the number of decimals used to get its user representation. For example, if `decimals` equals `2`, a balance of `505` tokens should be displayed to a user as `5.05` (`505 / 10 ** 2`). Tokens usually opt for a value of 18, imitating the relationship between Ether and Wei. This is the value {ERC20} uses, unless this function is overridden; NOTE: This information is only used for _display_ purposes: it in no way affects any of the arithmetic of the contract, including {IERC20-balanceOf} and {IERC20-transfer}."
      },
      "decreaseAllowance(address,uint256)": {
        "details": "Atomically decreases the allowance granted to `spender` by the caller. This is an alternative to {approve} that can be used as a mitigation for problems described in {IERC20-approve}. Emits an {Approval} event indicating the updated allowance. Requirements: - `spender` cannot be the zero address. - `spender` must have allowance for the caller of at least `subtractedValue`."
      },
      "delegate(address)": {
        "details": "Delegate votes from the sender to `delegatee`."
      },
      "delegateBySig(address,uint256,uint256,uint8,bytes32,bytes32)": {
        "details": "Delegates votes from signer to `delegatee`"
      },
      "delegates(address)": {
        "details": "Get the address `account` is currently delegating to."
      },
      "getPastTotalSupply(uint256)": {
        "details": "Retrieve the `totalSupply` at the end of `blockNumber`. Note, this value is the sum of all balances. It is but NOT the sum of all the delegated votes! Requirements: - `blockNumber` must have been already mined"
      },
      "getPastVotes(address,uint256)": {
        "details": "Retrieve the number of votes for `account` at the end of `blockNumber`. Requirements: - `blockNumber` must have been already mined"
      },
      "getVotes(address)": {
        "details": "Gets the current votes balance for `account`"
      },
      "increaseAllowance(address,uint256)": {
        "details": "Atomically increases the allowance granted to `spender` by the caller. This is an alternative to {approve} that can be used as a mitigation for problems described in {IERC20-approve}. Emits an {Approval} event indicating the updated allowance. Requirements: - `spender` cannot be the zero address."
      },
      "name()": {
        "details": "Returns the name of the token."
      },
      "nonces(address)": {
        "details": "See {IERC20Permit-nonces}."
      },
      "numCheckpoints(address)": {
        "details": "Get number of checkpoints for `account`."
      },
      "owner()": {
        "details": "Returns the address of the current owner."
      },
      "permit(address,address,uint256,uint256,uint8,bytes32,bytes32)": {
        "details": "See {IERC20Permit-permit}."
      },
      "renounceOwnership()": {
        "details": "Leaves the contract without owner. It will not be possible to call `onlyOwner` functions anymore. Can only be called by the current owner. NOTE: Renouncing ownership will leave the contract without an owner, thereby removing any functionality that is only available to the owner."
      },
      "symbol()": {
        "details": "Returns the symbol of the token, usually a shorter version of the name."
      },
      "totalSupply()": {
        "details": "See {IERC20-totalSupply}."
      },
      "totalSupplyAt(uint256)": {
        "details": "Retrieves the total supply at the time `snapshotId` was created."
      },
      "transfer(address,uint256)": {
        "details": "See {IERC20-transfer}. Requirements: - `recipient` cannot be the zero address. - the caller must have a balance of at least `amount`."
      },
      "transferFrom(address,address,uint256)": {
        "details": "See {IERC20-transferFrom}. Emits an {Approval} event indicating the updated allowance. This is not required by the EIP. See the note at the beginning of {ERC20}. Requirements: - `sender` and `recipient` cannot be the zero address. - `sender` must have a balance of at least `amount`. - the caller must have allowance for ``sender``'s tokens of at least `amount`."
      },
      "transferOwnership(address)": {
        "details": "Transfers ownership of the contract to a new account (`newOwner`). Can only be called by the current owner."
      }
    },
    "version": 1
  },
  "userdoc": {
    "kind": "user",
    "methods": {},
    "version": 1
  },
  "storageLayout": {
    "storage": [
      {
        "astId": 120,
        "contract": "contracts/PaycerToken.sol:PaycerToken",
        "label": "_balances",
        "offset": 0,
        "slot": "0",
        "type": "t_mapping(t_address,t_uint256)"
      },
      {
        "astId": 126,
        "contract": "contracts/PaycerToken.sol:PaycerToken",
        "label": "_allowances",
        "offset": 0,
        "slot": "1",
        "type": "t_mapping(t_address,t_mapping(t_address,t_uint256))"
      },
      {
        "astId": 128,
        "contract": "contracts/PaycerToken.sol:PaycerToken",
        "label": "_totalSupply",
        "offset": 0,
        "slot": "2",
        "type": "t_uint256"
      },
      {
        "astId": 130,
        "contract": "contracts/PaycerToken.sol:PaycerToken",
        "label": "_name",
        "offset": 0,
        "slot": "3",
        "type": "t_string_storage"
      },
      {
        "astId": 132,
        "contract": "contracts/PaycerToken.sol:PaycerToken",
        "label": "_symbol",
        "offset": 0,
        "slot": "4",
        "type": "t_string_storage"
      },
      {
        "astId": 883,
        "contract": "contracts/PaycerToken.sol:PaycerToken",
        "label": "_accountBalanceSnapshots",
        "offset": 0,
        "slot": "5",
        "type": "t_mapping(t_address,t_struct(Snapshots)878_storage)"
      },
      {
        "astId": 886,
        "contract": "contracts/PaycerToken.sol:PaycerToken",
        "label": "_totalSupplySnapshots",
        "offset": 0,
        "slot": "6",
        "type": "t_struct(Snapshots)878_storage"
      },
      {
        "astId": 889,
        "contract": "contracts/PaycerToken.sol:PaycerToken",
        "label": "_currentSnapshotId",
        "offset": 0,
        "slot": "8",
        "type": "t_struct(Counter)2172_storage"
      },
      {
        "astId": 7,
        "contract": "contracts/PaycerToken.sol:PaycerToken",
        "label": "_owner",
        "offset": 0,
        "slot": "9",
        "type": "t_address"
      },
      {
        "astId": 1877,
        "contract": "contracts/PaycerToken.sol:PaycerToken",
        "label": "_nonces",
        "offset": 0,
        "slot": "10",
        "type": "t_mapping(t_address,t_struct(Counter)2172_storage)"
      },
      {
        "astId": 1206,
        "contract": "contracts/PaycerToken.sol:PaycerToken",
        "label": "_delegates",
        "offset": 0,
        "slot": "11",
        "type": "t_mapping(t_address,t_address)"
      },
      {
        "astId": 1212,
        "contract": "contracts/PaycerToken.sol:PaycerToken",
        "label": "_checkpoints",
        "offset": 0,
        "slot": "12",
        "type": "t_mapping(t_address,t_array(t_struct(Checkpoint)1197_storage)dyn_storage)"
      },
      {
        "astId": 1216,
        "contract": "contracts/PaycerToken.sol:PaycerToken",
        "label": "_totalSupplyCheckpoints",
        "offset": 0,
        "slot": "13",
        "type": "t_array(t_struct(Checkpoint)1197_storage)dyn_storage"
      }
    ],
    "types": {
      "t_address": {
        "encoding": "inplace",
        "label": "address",
        "numberOfBytes": "20"
      },
      "t_array(t_struct(Checkpoint)1197_storage)dyn_storage": {
        "base": "t_struct(Checkpoint)1197_storage",
        "encoding": "dynamic_array",
        "label": "struct ERC20Votes.Checkpoint[]",
        "numberOfBytes": "32"
      },
      "t_array(t_uint256)dyn_storage": {
        "base": "t_uint256",
        "encoding": "dynamic_array",
        "label": "uint256[]",
        "numberOfBytes": "32"
      },
      "t_mapping(t_address,t_address)": {
        "encoding": "mapping",
        "key": "t_address",
        "label": "mapping(address => address)",
        "numberOfBytes": "32",
        "value": "t_address"
      },
      "t_mapping(t_address,t_array(t_struct(Checkpoint)1197_storage)dyn_storage)": {
        "encoding": "mapping",
        "key": "t_address",
        "label": "mapping(address => struct ERC20Votes.Checkpoint[])",
        "numberOfBytes": "32",
        "value": "t_array(t_struct(Checkpoint)1197_storage)dyn_storage"
      },
      "t_mapping(t_address,t_mapping(t_address,t_uint256))": {
        "encoding": "mapping",
        "key": "t_address",
        "label": "mapping(address => mapping(address => uint256))",
        "numberOfBytes": "32",
        "value": "t_mapping(t_address,t_uint256)"
      },
      "t_mapping(t_address,t_struct(Counter)2172_storage)": {
        "encoding": "mapping",
        "key": "t_address",
        "label": "mapping(address => struct Counters.Counter)",
        "numberOfBytes": "32",
        "value": "t_struct(Counter)2172_storage"
      },
      "t_mapping(t_address,t_struct(Snapshots)878_storage)": {
        "encoding": "mapping",
        "key": "t_address",
        "label": "mapping(address => struct ERC20Snapshot.Snapshots)",
        "numberOfBytes": "32",
        "value": "t_struct(Snapshots)878_storage"
      },
      "t_mapping(t_address,t_uint256)": {
        "encoding": "mapping",
        "key": "t_address",
        "label": "mapping(address => uint256)",
        "numberOfBytes": "32",
        "value": "t_uint256"
      },
      "t_string_storage": {
        "encoding": "bytes",
        "label": "string",
        "numberOfBytes": "32"
      },
      "t_struct(Checkpoint)1197_storage": {
        "encoding": "inplace",
        "label": "struct ERC20Votes.Checkpoint",
        "members": [
          {
            "astId": 1194,
            "contract": "contracts/PaycerToken.sol:PaycerToken",
            "label": "fromBlock",
            "offset": 0,
            "slot": "0",
            "type": "t_uint32"
          },
          {
            "astId": 1196,
            "contract": "contracts/PaycerToken.sol:PaycerToken",
            "label": "votes",
            "offset": 4,
            "slot": "0",
            "type": "t_uint224"
          }
        ],
        "numberOfBytes": "32"
      },
      "t_struct(Counter)2172_storage": {
        "encoding": "inplace",
        "label": "struct Counters.Counter",
        "members": [
          {
            "astId": 2171,
            "contract": "contracts/PaycerToken.sol:PaycerToken",
            "label": "_value",
            "offset": 0,
            "slot": "0",
            "type": "t_uint256"
          }
        ],
        "numberOfBytes": "32"
      },
      "t_struct(Snapshots)878_storage": {
        "encoding": "inplace",
        "label": "struct ERC20Snapshot.Snapshots",
        "members": [
          {
            "astId": 874,
            "contract": "contracts/PaycerToken.sol:PaycerToken",
            "label": "ids",
            "offset": 0,
            "slot": "0",
            "type": "t_array(t_uint256)dyn_storage"
          },
          {
            "astId": 877,
            "contract": "contracts/PaycerToken.sol:PaycerToken",
            "label": "values",
            "offset": 0,
            "slot": "1",
            "type": "t_array(t_uint256)dyn_storage"
          }
        ],
        "numberOfBytes": "64"
      },
      "t_uint224": {
        "encoding": "inplace",
        "label": "uint224",
        "numberOfBytes": "28"
      },
      "t_uint256": {
        "encoding": "inplace",
        "label": "uint256",
        "numberOfBytes": "32"
      },
      "t_uint32": {
        "encoding": "inplace",
        "label": "uint32",
        "numberOfBytes": "4"
      }
    }
  }
}