{
    "_format": "hh-sol-artifact-1",
    "contractName": "Vesting",
    "sourceName": "contracts/Vesting.sol",
    "abi": [
        {
            "anonymous": false,
            "inputs": [
                {
                    "indexed": true,
                    "internalType": "address",
                    "name": "newOwner",
                    "type": "address"
                }
            ],
            "name": "OwnerUpdated",
            "type": "event"
        },
        {
            "anonymous": false,
            "inputs": [
                {
                    "indexed": true,
                    "internalType": "address",
                    "name": "previousOwner",
                    "type": "address"
                },
                {
                    "indexed": true,
                    "internalType": "address",
                    "name": "newOwner",
                    "type": "address"
                }
            ],
            "name": "OwnershipTransferred",
            "type": "event"
        },
        {
            "anonymous": false,
            "inputs": [
                {
                    "indexed": false,
                    "internalType": "uint256",
                    "name": "startTime",
                    "type": "uint256"
                }
            ],
            "name": "StartTimeSet",
            "type": "event"
        },
        {
            "anonymous": false,
            "inputs": [
                {
                    "indexed": true,
                    "internalType": "address",
                    "name": "registeredAddress",
                    "type": "address"
                },
                {
                    "indexed": false,
                    "internalType": "uint256",
                    "name": "totalAmount",
                    "type": "uint256"
                }
            ],
            "name": "VestingInfoUpdated",
            "type": "event"
        },
        {
            "anonymous": false,
            "inputs": [
                {
                    "indexed": true,
                    "internalType": "address",
                    "name": "registeredAddress",
                    "type": "address"
                },
                {
                    "indexed": false,
                    "internalType": "uint256",
                    "name": "amountWithdrawn",
                    "type": "uint256"
                }
            ],
            "name": "Withdraw",
            "type": "event"
        },
        {
            "inputs": [],
            "name": "ACCURACY",
            "outputs": [
                {
                    "internalType": "uint256",
                    "name": "",
                    "type": "uint256"
                }
            ],
            "stateMutability": "view",
            "type": "function"
        },
        {
            "inputs": [],
            "name": "amountToBeVested",
            "outputs": [
                {
                    "internalType": "uint256",
                    "name": "",
                    "type": "uint256"
                }
            ],
            "stateMutability": "view",
            "type": "function"
        },
        {
            "inputs": [
                {
                    "internalType": "uint256",
                    "name": "page",
                    "type": "uint256"
                },
                {
                    "internalType": "uint256",
                    "name": "limit",
                    "type": "uint256"
                }
            ],
            "name": "getParticipants",
            "outputs": [
                {
                    "internalType": "address[]",
                    "name": "",
                    "type": "address[]"
                }
            ],
            "stateMutability": "view",
            "type": "function"
        },
        {
            "inputs": [],
            "name": "initialUnlock",
            "outputs": [
                {
                    "internalType": "uint256",
                    "name": "",
                    "type": "uint256"
                }
            ],
            "stateMutability": "view",
            "type": "function"
        },
        {
            "inputs": [
                {
                    "internalType": "address",
                    "name": "_vestingToken",
                    "type": "address"
                },
                {
                    "components": [
                        {
                            "internalType": "string",
                            "name": "vestingName",
                            "type": "string"
                        },
                        {
                            "internalType": "uint256",
                            "name": "amountToBeVested",
                            "type": "uint256"
                        },
                        {
                            "internalType": "uint256",
                            "name": "lockPeriod",
                            "type": "uint256"
                        },
                        {
                            "internalType": "uint256",
                            "name": "initialUnlock",
                            "type": "uint256"
                        },
                        {
                            "internalType": "uint256",
                            "name": "vestingPeriod",
                            "type": "uint256"
                        },
                        {
                            "internalType": "uint256",
                            "name": "releaseInterval",
                            "type": "uint256"
                        },
                        {
                            "internalType": "uint256",
                            "name": "releaseRate",
                            "type": "uint256"
                        }
                    ],
                    "internalType": "struct Vesting.VestingParams",
                    "name": "_params",
                    "type": "tuple"
                }
            ],
            "name": "initialize",
            "outputs": [],
            "stateMutability": "nonpayable",
            "type": "function"
        },
        {
            "inputs": [],
            "name": "lockPeriod",
            "outputs": [
                {
                    "internalType": "uint256",
                    "name": "",
                    "type": "uint256"
                }
            ],
            "stateMutability": "view",
            "type": "function"
        },
        {
            "inputs": [
                {
                    "internalType": "address",
                    "name": "beneficiary",
                    "type": "address"
                }
            ],
            "name": "locked",
            "outputs": [
                {
                    "internalType": "uint256",
                    "name": "",
                    "type": "uint256"
                }
            ],
            "stateMutability": "view",
            "type": "function"
        },
        {
            "inputs": [],
            "name": "owner",
            "outputs": [
                {
                    "internalType": "address",
                    "name": "",
                    "type": "address"
                }
            ],
            "stateMutability": "view",
            "type": "function"
        },
        {
            "inputs": [],
            "name": "participantCount",
            "outputs": [
                {
                    "internalType": "uint256",
                    "name": "",
                    "type": "uint256"
                }
            ],
            "stateMutability": "view",
            "type": "function"
        },
        {
            "inputs": [
                {
                    "internalType": "address",
                    "name": "",
                    "type": "address"
                }
            ],
            "name": "recipients",
            "outputs": [
                {
                    "internalType": "uint256",
                    "name": "totalAmount",
                    "type": "uint256"
                },
                {
                    "internalType": "uint256",
                    "name": "amountWithdrawn",
                    "type": "uint256"
                }
            ],
            "stateMutability": "view",
            "type": "function"
        },
        {
            "inputs": [],
            "name": "releaseInterval",
            "outputs": [
                {
                    "internalType": "uint256",
                    "name": "",
                    "type": "uint256"
                }
            ],
            "stateMutability": "view",
            "type": "function"
        },
        {
            "inputs": [],
            "name": "releaseRate",
            "outputs": [
                {
                    "internalType": "uint256",
                    "name": "",
                    "type": "uint256"
                }
            ],
            "stateMutability": "view",
            "type": "function"
        },
        {
            "inputs": [],
            "name": "renounceOwnership",
            "outputs": [],
            "stateMutability": "nonpayable",
            "type": "function"
        },
        {
            "inputs": [
                {
                    "internalType": "uint256",
                    "name": "newStartTime",
                    "type": "uint256"
                }
            ],
            "name": "setStartTime",
            "outputs": [],
            "stateMutability": "nonpayable",
            "type": "function"
        },
        {
            "inputs": [],
            "name": "startTime",
            "outputs": [
                {
                    "internalType": "uint256",
                    "name": "",
                    "type": "uint256"
                }
            ],
            "stateMutability": "view",
            "type": "function"
        },
        {
            "inputs": [],
            "name": "totalVestingAmount",
            "outputs": [
                {
                    "internalType": "uint256",
                    "name": "",
                    "type": "uint256"
                }
            ],
            "stateMutability": "view",
            "type": "function"
        },
        {
            "inputs": [
                {
                    "internalType": "address",
                    "name": "newOwner",
                    "type": "address"
                }
            ],
            "name": "transferOwnership",
            "outputs": [],
            "stateMutability": "nonpayable",
            "type": "function"
        },
        {
            "inputs": [
                {
                    "internalType": "address",
                    "name": "recp",
                    "type": "address"
                },
                {
                    "internalType": "uint256",
                    "name": "amount",
                    "type": "uint256"
                }
            ],
            "name": "updateRecipient",
            "outputs": [],
            "stateMutability": "nonpayable",
            "type": "function"
        },
        {
            "inputs": [
                {
                    "internalType": "address",
                    "name": "beneficiary",
                    "type": "address"
                }
            ],
            "name": "vested",
            "outputs": [
                {
                    "internalType": "uint256",
                    "name": "amount",
                    "type": "uint256"
                }
            ],
            "stateMutability": "view",
            "type": "function"
        },
        {
            "inputs": [],
            "name": "vestingName",
            "outputs": [
                {
                    "internalType": "string",
                    "name": "",
                    "type": "string"
                }
            ],
            "stateMutability": "view",
            "type": "function"
        },
        {
            "inputs": [],
            "name": "vestingPeriod",
            "outputs": [
                {
                    "internalType": "uint256",
                    "name": "",
                    "type": "uint256"
                }
            ],
            "stateMutability": "view",
            "type": "function"
        },
        {
            "inputs": [],
            "name": "vestingToken",
            "outputs": [
                {
                    "internalType": "address",
                    "name": "",
                    "type": "address"
                }
            ],
            "stateMutability": "view",
            "type": "function"
        },
        {
            "inputs": [],
            "name": "withdraw",
            "outputs": [],
            "stateMutability": "nonpayable",
            "type": "function"
        },
        {
            "inputs": [
                {
                    "internalType": "address",
                    "name": "beneficiary",
                    "type": "address"
                }
            ],
            "name": "withdrawable",
            "outputs": [
                {
                    "internalType": "uint256",
                    "name": "",
                    "type": "uint256"
                }
            ],
            "stateMutability": "view",
            "type": "function"
        }
    ],
    "bytecode": "0x608060405234801561001057600080fd5b50611813806100206000396000f3fe608060405234801561001057600080fd5b50600436106101585760003560e01c806378e97925116100c3578063ce513b6f1161007c578063ce513b6f1461026d578063d1a82b0414610280578063ded0ed1614610295578063eb820312146102b5578063f2fde38b146102f1578063fbcd9b051461030457610158565b806378e979251461022557806388f4d4091461022e5780638da5cb5b14610237578063a703299814610248578063c3f368af14610251578063cbf9fe5f1461025a57610158565b80633e0a322d116101155780633e0a322d146101d25780633fd8b02f146101e55780635e0014fc146101ee5780637102b72814610201578063715018a6146102145780637313ee5a1461021c57610158565b80630efaa4de1461015d57806319d152fa146101725780631f8db268146101a25780632db94d19146101b9578063362f04c0146101c25780633ccfd60b146101ca575b600080fd5b61017061016b3660046114d6565b610310565b005b606d54610185906001600160a01b031681565b6040516001600160a01b0390911681526020015b60405180910390f35b6101ab60685481565b604051908152602001610199565b6101ab606f5481565b6071546101ab565b61017061062d565b6101706101e036600461151f565b61075b565b6101ab606b5481565b6101706101fc36600461141c565b61087b565b6101ab61020f366004611402565b610ad7565b610170610c3b565b6101ab606c5481565b6101ab60675481565b6101ab60655481565b6033546001600160a01b0316610185565b6101ab60695481565b6101ab606a5481565b6101ab610268366004611402565b610c71565b6101ab61027b366004611402565b610ca8565b610288610cdd565b60405161019991906115d9565b6102a86102a336600461154f565b610d6b565b604051610199919061158c565b6102dc6102c3366004611402565b6070602052600090815260409020805460019091015482565b60408051928352602083019190915201610199565b6101706102ff366004611402565b610de3565b6101ab6402540be40081565b6033546001600160a01b031633146103435760405162461bcd60e51b815260040161033a9061160c565b60405180910390fd5b606754158061035457504260675410155b6103c65760405162461bcd60e51b815260206004820152603b60248201527f757064617465526563697069656e743a2043616e6e6f7420757064617465207460448201527f68652072656365697069656e7420616674657220737461727465640000000000606482015260840161033a565b600081116104165760405162461bcd60e51b815260206004820152601e60248201527f757064617465526563697069656e743a2043616e6e6f74207665737420300000604482015260640161033a565b6001600160a01b038216600090815260706020526040902054606f5461043d9083906116bd565b6104479190611714565b606f55606d546040516370a0823160e01b81523060048201526000916001600160a01b0316906370a082319060240160206040518083038186803b15801561048e57600080fd5b505afa1580156104a2573d6000803e3d6000fd5b505050506040513d601f19601f820116820180604052508101906104c69190611537565b9050606f548110156105405760405162461bcd60e51b815260206004820152603760248201527f757064617465526563697069656e743a2056657374696e6720616d6f756e742060448201527f657863656564732063757272656e742062616c616e6365000000000000000000606482015260840161033a565b6001600160a01b03831660009081526073602052604090205460ff166105d3576001600160a01b0383166000818152607360209081526040808320805460ff19166001908117909155607180546072909452918420839055820181559091527fa1fcd19bfe8c32a61095b6bfbb2664842857e148fcbb5188386c8cd40348d5b60180546001600160a01b03191690911790555b6001600160a01b03831660008181526070602052604090819020849055517fb75e30dd4130df7c81c959903fd87c9797b4437f75b2d292531f1cd5c22b49a5906106209085815260200190565b60405180910390a2505050565b6002606e5414156106805760405162461bcd60e51b815260206004820152601f60248201527f5265656e7472616e637947756172643a207265656e7472616e742063616c6c00604482015260640161033a565b6002606e5533600090815260706020526040902080546106a05750610754565b60006106ab33610ad7565b905060006106b833610ca8565b600184018390559050806107045760405162461bcd60e51b81526020600482015260136024820152724e6f7468696e6720746f20776974686472617760681b604482015260640161033a565b606d5461071b906001600160a01b03163383610e7e565b60405181815233907f884edad9ce6fa2440d8a54cc123490eb96d2768479d49ff9c7366125a94243649060200160405180910390a25050505b6001606e55565b6033546001600160a01b031633146107855760405162461bcd60e51b815260040161033a9061160c565b606754158061079657504260675410155b6107e25760405162461bcd60e51b815260206004820152601d60248201527f736574537461727454696d653a20416c72656164792073746172746564000000604482015260640161033a565b4281116108405760405162461bcd60e51b815260206004820152602660248201527f736574537461727454696d653a2053686f756c642062652074696d6520696e2060448201526566757475726560d01b606482015260840161033a565b60678190556040518181527faad53c4362ef2fe5a5390cc046e71fd8423a0a8dceebc156ac9bbcd15997eec29060200160405180910390a150565b600054610100900460ff166108965760005460ff161561089a565b303b155b6108fd5760405162461bcd60e51b815260206004820152602e60248201527f496e697469616c697a61626c653a20636f6e747261637420697320616c72656160448201526d191e481a5b9a5d1a585b1a5e995960921b606482015260840161033a565b600054610100900460ff1615801561091f576000805461ffff19166101011790555b6001600160a01b0383166109855760405162461bcd60e51b815260206004820152602760248201527f696e697469616c697a653a2076657374696e67546f6b656e2063616e6e6f74206044820152666265207a65726f60c81b606482015260840161033a565b60008260c00151116109e95760405162461bcd60e51b815260206004820152602760248201527f696e697469616c697a653a2072656c6561736520726174652063616e6e6f74206044820152666265207a65726f60c81b606482015260840161033a565b60008260a0015111610a515760405162461bcd60e51b815260206004820152602b60248201527f696e697469616c697a653a2072656c6561736520696e74657276616c2063616e60448201526a6e6f74206265207a65726f60a81b606482015260840161033a565b610a59610ed0565b606d80546001600160a01b0319166001600160a01b03851617905581518051610a8a916066916020909101906112e7565b5060208201516065556060820151606a5560a082015160685560c08201516069556040820151606b556080820151606c556001606e558015610ad2576000805461ff00191690555b505050565b600080606b54606754610aea91906116bd565b90506000606c5482610afc91906116bd565b6001600160a01b0385166000908152607060209081526040918290208251808401909352805483526001015490820152606754919250901580610b3e57508051155b80610b495750824211155b15610b5a5760009350505050610c36565b81421115610b6d57519250610c36915050565b60006402540be400606a548360000151610b8791906116f5565b610b9191906116d5565b905060006402540be4006069548460000151610bad91906116f5565b610bb791906116d5565b9050600082826068548842610bcc9190611714565b610bd691906116d5565b610be091906116f5565b610bea91906116bd565b6001600160a01b038916600090815260706020526040902060010154909150818111610c165781610c18565b805b85519092508211610c295781610c2c565b84515b9750505050505050505b919050565b6033546001600160a01b03163314610c655760405162461bcd60e51b815260040161033a9061160c565b610c6f6000610f07565b565b6001600160a01b03811660009081526070602052604081205481610c9484610ad7565b9050610ca08183611714565b949350505050565b600080610cb483610ad7565b6001600160a01b038416600090815260706020526040902060010154909150610ca08183611714565b60668054610cea9061175b565b80601f0160208091040260200160405190810160405280929190818152602001828054610d169061175b565b8015610d635780601f10610d3857610100808354040283529160200191610d63565b820191906000526020600020905b815481529060010190602001808311610d4657829003601f168201915b505050505081565b6060610ddc83836071805480602002602001604051908101604052809291908181526020018280548015610dc857602002820191906000526020600020905b81546001600160a01b03168152600190910190602001808311610daa575b5050505050610f599092919063ffffffff16565b9392505050565b6033546001600160a01b03163314610e0d5760405162461bcd60e51b815260040161033a9061160c565b6001600160a01b038116610e725760405162461bcd60e51b815260206004820152602660248201527f4f776e61626c653a206e6577206f776e657220697320746865207a65726f206160448201526564647265737360d01b606482015260840161033a565b610e7b81610f07565b50565b604080516001600160a01b038416602482015260448082018490528251808303909101815260649091019091526020810180516001600160e01b031663a9059cbb60e01b179052610ad29084906110b3565b600054610100900460ff16610ef75760405162461bcd60e51b815260040161033a90611641565b610eff611185565b610c6f6111ac565b603380546001600160a01b038381166001600160a01b0319831681179093556040519116919082907f8be0079c531659141344cd1fd0a4f28419497f9722a3daafe3b4186f6b6457e090600090a35050565b60608167ffffffffffffffff811115610f8257634e487b7160e01b600052604160045260246000fd5b604051908082528060200260200182016040528015610fab578160200160208202803683370190505b50905060005b828110156110ab57845181610fc685876116f5565b610fd091906116bd565b1061101c576000828281518110610ff757634e487b7160e01b600052603260045260246000fd5b60200260200101906001600160a01b031690816001600160a01b031681525050611099565b848161102885876116f5565b61103291906116bd565b8151811061105057634e487b7160e01b600052603260045260246000fd5b602002602001015182828151811061107857634e487b7160e01b600052603260045260246000fd5b60200260200101906001600160a01b031690816001600160a01b0316815250505b806110a381611796565b915050610fb1565b509392505050565b6000611108826040518060400160405280602081526020017f5361666545524332303a206c6f772d6c6576656c2063616c6c206661696c6564815250856001600160a01b03166111dc9092919063ffffffff16565b805190915015610ad2578080602001905181019061112691906114ff565b610ad25760405162461bcd60e51b815260206004820152602a60248201527f5361666545524332303a204552433230206f7065726174696f6e20646964206e6044820152691bdd081cdd58d8d9595960b21b606482015260840161033a565b600054610100900460ff16610c6f5760405162461bcd60e51b815260040161033a90611641565b600054610100900460ff166111d35760405162461bcd60e51b815260040161033a90611641565b610c6f33610f07565b6060610ca0848460008585843b6112355760405162461bcd60e51b815260206004820152601d60248201527f416464726573733a2063616c6c20746f206e6f6e2d636f6e7472616374000000604482015260640161033a565b600080866001600160a01b031685876040516112519190611570565b60006040518083038185875af1925050503d806000811461128e576040519150601f19603f3d011682016040523d82523d6000602084013e611293565b606091505b50915091506112a38282866112ae565b979650505050505050565b606083156112bd575081610ddc565b8251156112cd5782518084602001fd5b8160405162461bcd60e51b815260040161033a91906115d9565b8280546112f39061175b565b90600052602060002090601f016020900481019282611315576000855561135b565b82601f1061132e57805160ff191683800117855561135b565b8280016001018555821561135b579182015b8281111561135b578251825591602001919060010190611340565b5061136792915061136b565b5090565b5b80821115611367576000815560010161136c565b80356001600160a01b0381168114610c3657600080fd5b600082601f8301126113a7578081fd5b813567ffffffffffffffff8111156113c1576113c16117c7565b6113d4601f8201601f191660200161168c565b8181528460208386010111156113e8578283fd5b816020850160208301379081016020019190915292915050565b600060208284031215611413578081fd5b610ddc82611380565b6000806040838503121561142e578081fd5b61143783611380565b9150602083013567ffffffffffffffff80821115611453578283fd5b9084019060e08287031215611466578283fd5b61147060e061168c565b82358281111561147e578485fd5b61148a88828601611397565b8252506020830135602082015260408301356040820152606083013560608201526080830135608082015260a083013560a082015260c083013560c08201528093505050509250929050565b600080604083850312156114e8578182fd5b6114f183611380565b946020939093013593505050565b600060208284031215611510578081fd5b81518015158114610ddc578182fd5b600060208284031215611530578081fd5b5035919050565b600060208284031215611548578081fd5b5051919050565b60008060408385031215611561578182fd5b50508035926020909101359150565b6000825161158281846020870161172b565b9190910192915050565b6020808252825182820181905260009190848201906040850190845b818110156115cd5783516001600160a01b0316835292840192918401916001016115a8565b50909695505050505050565b60006020825282518060208401526115f881604085016020870161172b565b601f01601f19169190910160400192915050565b6020808252818101527f4f776e61626c653a2063616c6c6572206973206e6f7420746865206f776e6572604082015260600190565b6020808252602b908201527f496e697469616c697a61626c653a20636f6e7472616374206973206e6f74206960408201526a6e697469616c697a696e6760a81b606082015260800190565b604051601f8201601f1916810167ffffffffffffffff811182821017156116b5576116b56117c7565b604052919050565b600082198211156116d0576116d06117b1565b500190565b6000826116f057634e487b7160e01b81526012600452602481fd5b500490565b600081600019048311821515161561170f5761170f6117b1565b500290565b600082821015611726576117266117b1565b500390565b60005b8381101561174657818101518382015260200161172e565b83811115611755576000848401525b50505050565b600181811c9082168061176f57607f821691505b6020821081141561179057634e487b7160e01b600052602260045260246000fd5b50919050565b60006000198214156117aa576117aa6117b1565b5060010190565b634e487b7160e01b600052601160045260246000fd5b634e487b7160e01b600052604160045260246000fdfea2646970667358221220dd72170d1172c9232b43e5b5db7c4a56b243af1d97828277510ccbf34cff54f964736f6c63430008030033",
    "linkReferences": {},
    "deployedLinkReferences": {}
}